{
  "_format": "hh3-artifact-1",
  "contractName": "NFTix",
  "sourceName": "contracts/NFTix.sol",
  "abi": [
    {
      "inputs": [],
      "stateMutability": "nonpayable",
      "type": "constructor"
    },
    {
      "anonymous": false,
      "inputs": [
        {
          "indexed": true,
          "internalType": "address",
          "name": "owner",
          "type": "address"
        },
        {
          "indexed": true,
          "internalType": "address",
          "name": "approved",
          "type": "address"
        },
        {
          "indexed": true,
          "internalType": "uint256",
          "name": "tokenId",
          "type": "uint256"
        }
      ],
      "name": "Approval",
      "type": "event"
    },
    {
      "anonymous": false,
      "inputs": [
        {
          "indexed": true,
          "internalType": "address",
          "name": "owner",
          "type": "address"
        },
        {
          "indexed": true,
          "internalType": "address",
          "name": "operator",
          "type": "address"
        },
        {
          "indexed": false,
          "internalType": "bool",
          "name": "approved",
          "type": "bool"
        }
      ],
      "name": "ApprovalForAll",
      "type": "event"
    },
    {
      "anonymous": false,
      "inputs": [
        {
          "indexed": false,
          "internalType": "uint256",
          "name": "_fromTokenId",
          "type": "uint256"
        },
        {
          "indexed": false,
          "internalType": "uint256",
          "name": "_toTokenId",
          "type": "uint256"
        }
      ],
      "name": "BatchMetadataUpdate",
      "type": "event"
    },
    {
      "anonymous": false,
      "inputs": [
        {
          "indexed": true,
          "internalType": "uint256",
          "name": "eventId",
          "type": "uint256"
        },
        {
          "indexed": true,
          "internalType": "address",
          "name": "organizer",
          "type": "address"
        },
        {
          "indexed": false,
          "internalType": "string",
          "name": "title",
          "type": "string"
        }
      ],
      "name": "EventCreated",
      "type": "event"
    },
    {
      "anonymous": false,
      "inputs": [
        {
          "indexed": false,
          "internalType": "uint256",
          "name": "_tokenId",
          "type": "uint256"
        }
      ],
      "name": "MetadataUpdate",
      "type": "event"
    },
    {
      "anonymous": false,
      "inputs": [
        {
          "indexed": true,
          "internalType": "address",
          "name": "previousOwner",
          "type": "address"
        },
        {
          "indexed": true,
          "internalType": "address",
          "name": "newOwner",
          "type": "address"
        }
      ],
      "name": "OwnershipTransferred",
      "type": "event"
    },
    {
      "anonymous": false,
      "inputs": [
        {
          "indexed": true,
          "internalType": "uint256",
          "name": "tokenId",
          "type": "uint256"
        },
        {
          "indexed": true,
          "internalType": "uint256",
          "name": "eventId",
          "type": "uint256"
        },
        {
          "indexed": true,
          "internalType": "address",
          "name": "buyer",
          "type": "address"
        }
      ],
      "name": "TicketMinted",
      "type": "event"
    },
    {
      "anonymous": false,
      "inputs": [
        {
          "indexed": true,
          "internalType": "uint256",
          "name": "tokenId",
          "type": "uint256"
        },
        {
          "indexed": true,
          "internalType": "address",
          "name": "from",
          "type": "address"
        },
        {
          "indexed": true,
          "internalType": "address",
          "name": "to",
          "type": "address"
        },
        {
          "indexed": false,
          "internalType": "uint256",
          "name": "price",
          "type": "uint256"
        }
      ],
      "name": "TicketTransferred",
      "type": "event"
    },
    {
      "anonymous": false,
      "inputs": [
        {
          "indexed": true,
          "internalType": "uint256",
          "name": "tokenId",
          "type": "uint256"
        },
        {
          "indexed": true,
          "internalType": "uint256",
          "name": "eventId",
          "type": "uint256"
        }
      ],
      "name": "TicketUsed",
      "type": "event"
    },
    {
      "anonymous": false,
      "inputs": [
        {
          "indexed": true,
          "internalType": "address",
          "name": "from",
          "type": "address"
        },
        {
          "indexed": true,
          "internalType": "address",
          "name": "to",
          "type": "address"
        },
        {
          "indexed": true,
          "internalType": "uint256",
          "name": "tokenId",
          "type": "uint256"
        }
      ],
      "name": "Transfer",
      "type": "event"
    },
    {
      "inputs": [],
      "name": "MAX_RESALE_PERCENTAGE",
      "outputs": [
        {
          "internalType": "uint256",
          "name": "",
          "type": "uint256"
        }
      ],
      "stateMutability": "view",
      "type": "function"
    },
    {
      "inputs": [],
      "name": "ROYALTY_PERCENTAGE",
      "outputs": [
        {
          "internalType": "uint256",
          "name": "",
          "type": "uint256"
        }
      ],
      "stateMutability": "view",
      "type": "function"
    },
    {
      "inputs": [],
      "name": "TRANSFER_COOLDOWN",
      "outputs": [
        {
          "internalType": "uint256",
          "name": "",
          "type": "uint256"
        }
      ],
      "stateMutability": "view",
      "type": "function"
    },
    {
      "inputs": [
        {
          "internalType": "address",
          "name": "to",
          "type": "address"
        },
        {
          "internalType": "uint256",
          "name": "tokenId",
          "type": "uint256"
        }
      ],
      "name": "approve",
      "outputs": [],
      "stateMutability": "nonpayable",
      "type": "function"
    },
    {
      "inputs": [
        {
          "internalType": "address",
          "name": "owner",
          "type": "address"
        }
      ],
      "name": "balanceOf",
      "outputs": [
        {
          "internalType": "uint256",
          "name": "",
          "type": "uint256"
        }
      ],
      "stateMutability": "view",
      "type": "function"
    },
    {
      "inputs": [
        {
          "internalType": "string",
          "name": "_title",
          "type": "string"
        },
        {
          "internalType": "string",
          "name": "_description",
          "type": "string"
        },
        {
          "internalType": "string",
          "name": "_location",
          "type": "string"
        },
        {
          "internalType": "uint256",
          "name": "_date",
          "type": "uint256"
        },
        {
          "internalType": "uint256",
          "name": "_ticketPrice",
          "type": "uint256"
        },
        {
          "internalType": "uint256",
          "name": "_maxTickets",
          "type": "uint256"
        },
        {
          "internalType": "string",
          "name": "_metadataURI",
          "type": "string"
        }
      ],
      "name": "createEvent",
      "outputs": [
        {
          "internalType": "uint256",
          "name": "",
          "type": "uint256"
        }
      ],
      "stateMutability": "nonpayable",
      "type": "function"
    },
    {
      "inputs": [
        {
          "internalType": "uint256",
          "name": "_eventId",
          "type": "uint256"
        }
      ],
      "name": "deactivateEvent",
      "outputs": [],
      "stateMutability": "nonpayable",
      "type": "function"
    },
    {
      "inputs": [
        {
          "internalType": "uint256",
          "name": "",
          "type": "uint256"
        }
      ],
      "name": "events",
      "outputs": [
        {
          "internalType": "uint256",
          "name": "eventId",
          "type": "uint256"
        },
        {
          "internalType": "string",
          "name": "title",
          "type": "string"
        },
        {
          "internalType": "string",
          "name": "description",
          "type": "string"
        },
        {
          "internalType": "string",
          "name": "location",
          "type": "string"
        },
        {
          "internalType": "uint256",
          "name": "date",
          "type": "uint256"
        },
        {
          "internalType": "uint256",
          "name": "ticketPrice",
          "type": "uint256"
        },
        {
          "internalType": "uint256",
          "name": "maxTickets",
          "type": "uint256"
        },
        {
          "internalType": "uint256",
          "name": "soldTickets",
          "type": "uint256"
        },
        {
          "internalType": "address",
          "name": "organizer",
          "type": "address"
        },
        {
          "internalType": "bool",
          "name": "isActive",
          "type": "bool"
        },
        {
          "internalType": "string",
          "name": "metadataURI",
          "type": "string"
        }
      ],
      "stateMutability": "view",
      "type": "function"
    },
    {
      "inputs": [
        {
          "internalType": "uint256",
          "name": "_eventId",
          "type": "uint256"
        }
      ],
      "name": "fetchEvent",
      "outputs": [
        {
          "components": [
            {
              "internalType": "uint256",
              "name": "eventId",
              "type": "uint256"
            },
            {
              "internalType": "string",
              "name": "title",
              "type": "string"
            },
            {
              "internalType": "string",
              "name": "description",
              "type": "string"
            },
            {
              "internalType": "string",
              "name": "location",
              "type": "string"
            },
            {
              "internalType": "uint256",
              "name": "date",
              "type": "uint256"
            },
            {
              "internalType": "uint256",
              "name": "ticketPrice",
              "type": "uint256"
            },
            {
              "internalType": "uint256",
              "name": "maxTickets",
              "type": "uint256"
            },
            {
              "internalType": "uint256",
              "name": "soldTickets",
              "type": "uint256"
            },
            {
              "internalType": "address",
              "name": "organizer",
              "type": "address"
            },
            {
              "internalType": "bool",
              "name": "isActive",
              "type": "bool"
            },
            {
              "internalType": "string",
              "name": "metadataURI",
              "type": "string"
            }
          ],
          "internalType": "struct NFTix.Event",
          "name": "",
          "type": "tuple"
        }
      ],
      "stateMutability": "view",
      "type": "function"
    },
    {
      "inputs": [
        {
          "internalType": "uint256",
          "name": "tokenId",
          "type": "uint256"
        }
      ],
      "name": "getApproved",
      "outputs": [
        {
          "internalType": "address",
          "name": "",
          "type": "address"
        }
      ],
      "stateMutability": "view",
      "type": "function"
    },
    {
      "inputs": [
        {
          "internalType": "address",
          "name": "_organizer",
          "type": "address"
        }
      ],
      "name": "getEventsByOrganizer",
      "outputs": [
        {
          "internalType": "uint256[]",
          "name": "",
          "type": "uint256[]"
        }
      ],
      "stateMutability": "view",
      "type": "function"
    },
    {
      "inputs": [
        {
          "internalType": "uint256",
          "name": "_tokenId",
          "type": "uint256"
        }
      ],
      "name": "getTicket",
      "outputs": [
        {
          "components": [
            {
              "internalType": "uint256",
              "name": "tokenId",
              "type": "uint256"
            },
            {
              "internalType": "uint256",
              "name": "eventId",
              "type": "uint256"
            },
            {
              "internalType": "address",
              "name": "owner",
              "type": "address"
            },
            {
              "internalType": "bool",
              "name": "isUsed",
              "type": "bool"
            },
            {
              "internalType": "uint256",
              "name": "purchaseTime",
              "type": "uint256"
            },
            {
              "internalType": "uint256",
              "name": "originalPrice",
              "type": "uint256"
            }
          ],
          "internalType": "struct NFTix.Ticket",
          "name": "",
          "type": "tuple"
        }
      ],
      "stateMutability": "view",
      "type": "function"
    },
    {
      "inputs": [
        {
          "internalType": "address",
          "name": "_owner",
          "type": "address"
        }
      ],
      "name": "getTicketsByOwner",
      "outputs": [
        {
          "internalType": "uint256[]",
          "name": "",
          "type": "uint256[]"
        }
      ],
      "stateMutability": "view",
      "type": "function"
    },
    {
      "inputs": [
        {
          "internalType": "address",
          "name": "owner",
          "type": "address"
        },
        {
          "internalType": "address",
          "name": "operator",
          "type": "address"
        }
      ],
      "name": "isApprovedForAll",
      "outputs": [
        {
          "internalType": "bool",
          "name": "",
          "type": "bool"
        }
      ],
      "stateMutability": "view",
      "type": "function"
    },
    {
      "inputs": [
        {
          "internalType": "uint256",
          "name": "",
          "type": "uint256"
        }
      ],
      "name": "lastTransferTime",
      "outputs": [
        {
          "internalType": "uint256",
          "name": "",
          "type": "uint256"
        }
      ],
      "stateMutability": "view",
      "type": "function"
    },
    {
      "inputs": [
        {
          "internalType": "uint256",
          "name": "_eventId",
          "type": "uint256"
        },
        {
          "internalType": "string",
          "name": "_tokenURI",
          "type": "string"
        }
      ],
      "name": "mintTicket",
      "outputs": [
        {
          "internalType": "uint256",
          "name": "",
          "type": "uint256"
        }
      ],
      "stateMutability": "payable",
      "type": "function"
    },
    {
      "inputs": [],
      "name": "name",
      "outputs": [
        {
          "internalType": "string",
          "name": "",
          "type": "string"
        }
      ],
      "stateMutability": "view",
      "type": "function"
    },
    {
      "inputs": [],
      "name": "owner",
      "outputs": [
        {
          "internalType": "address",
          "name": "",
          "type": "address"
        }
      ],
      "stateMutability": "view",
      "type": "function"
    },
    {
      "inputs": [
        {
          "internalType": "uint256",
          "name": "tokenId",
          "type": "uint256"
        }
      ],
      "name": "ownerOf",
      "outputs": [
        {
          "internalType": "address",
          "name": "",
          "type": "address"
        }
      ],
      "stateMutability": "view",
      "type": "function"
    },
    {
      "inputs": [],
      "name": "renounceOwnership",
      "outputs": [],
      "stateMutability": "nonpayable",
      "type": "function"
    },
    {
      "inputs": [
        {
          "internalType": "address",
          "name": "from",
          "type": "address"
        },
        {
          "internalType": "address",
          "name": "to",
          "type": "address"
        },
        {
          "internalType": "uint256",
          "name": "tokenId",
          "type": "uint256"
        }
      ],
      "name": "safeTransferFrom",
      "outputs": [],
      "stateMutability": "nonpayable",
      "type": "function"
    },
    {
      "inputs": [
        {
          "internalType": "address",
          "name": "from",
          "type": "address"
        },
        {
          "internalType": "address",
          "name": "to",
          "type": "address"
        },
        {
          "internalType": "uint256",
          "name": "tokenId",
          "type": "uint256"
        },
        {
          "internalType": "bytes",
          "name": "data",
          "type": "bytes"
        }
      ],
      "name": "safeTransferFrom",
      "outputs": [],
      "stateMutability": "nonpayable",
      "type": "function"
    },
    {
      "inputs": [
        {
          "internalType": "address",
          "name": "operator",
          "type": "address"
        },
        {
          "internalType": "bool",
          "name": "approved",
          "type": "bool"
        }
      ],
      "name": "setApprovalForAll",
      "outputs": [],
      "stateMutability": "nonpayable",
      "type": "function"
    },
    {
      "inputs": [
        {
          "internalType": "bytes4",
          "name": "interfaceId",
          "type": "bytes4"
        }
      ],
      "name": "supportsInterface",
      "outputs": [
        {
          "internalType": "bool",
          "name": "",
          "type": "bool"
        }
      ],
      "stateMutability": "view",
      "type": "function"
    },
    {
      "inputs": [],
      "name": "symbol",
      "outputs": [
        {
          "internalType": "string",
          "name": "",
          "type": "string"
        }
      ],
      "stateMutability": "view",
      "type": "function"
    },
    {
      "inputs": [
        {
          "internalType": "uint256",
          "name": "",
          "type": "uint256"
        }
      ],
      "name": "tickets",
      "outputs": [
        {
          "internalType": "uint256",
          "name": "tokenId",
          "type": "uint256"
        },
        {
          "internalType": "uint256",
          "name": "eventId",
          "type": "uint256"
        },
        {
          "internalType": "address",
          "name": "owner",
          "type": "address"
        },
        {
          "internalType": "bool",
          "name": "isUsed",
          "type": "bool"
        },
        {
          "internalType": "uint256",
          "name": "purchaseTime",
          "type": "uint256"
        },
        {
          "internalType": "uint256",
          "name": "originalPrice",
          "type": "uint256"
        }
      ],
      "stateMutability": "view",
      "type": "function"
    },
    {
      "inputs": [
        {
          "internalType": "uint256",
          "name": "tokenId",
          "type": "uint256"
        }
      ],
      "name": "tokenURI",
      "outputs": [
        {
          "internalType": "string",
          "name": "",
          "type": "string"
        }
      ],
      "stateMutability": "view",
      "type": "function"
    },
    {
      "inputs": [
        {
          "internalType": "address",
          "name": "from",
          "type": "address"
        },
        {
          "internalType": "address",
          "name": "to",
          "type": "address"
        },
        {
          "internalType": "uint256",
          "name": "tokenId",
          "type": "uint256"
        }
      ],
      "name": "transferFrom",
      "outputs": [],
      "stateMutability": "nonpayable",
      "type": "function"
    },
    {
      "inputs": [
        {
          "internalType": "address",
          "name": "newOwner",
          "type": "address"
        }
      ],
      "name": "transferOwnership",
      "outputs": [],
      "stateMutability": "nonpayable",
      "type": "function"
    },
    {
      "inputs": [
        {
          "internalType": "uint256",
          "name": "_tokenId",
          "type": "uint256"
        },
        {
          "internalType": "address",
          "name": "_to",
          "type": "address"
        },
        {
          "internalType": "uint256",
          "name": "_price",
          "type": "uint256"
        }
      ],
      "name": "transferTicket",
      "outputs": [],
      "stateMutability": "nonpayable",
      "type": "function"
    },
    {
      "inputs": [
        {
          "internalType": "uint256",
          "name": "_tokenId",
          "type": "uint256"
        }
      ],
      "name": "useTicket",
      "outputs": [],
      "stateMutability": "nonpayable",
      "type": "function"
    },
    {
      "inputs": [
        {
          "internalType": "address",
          "name": "",
          "type": "address"
        }
      ],
      "name": "verifiedOrganizers",
      "outputs": [
        {
          "internalType": "bool",
          "name": "",
          "type": "bool"
        }
      ],
      "stateMutability": "view",
      "type": "function"
    },
    {
      "inputs": [
        {
          "internalType": "address",
          "name": "_organizer",
          "type": "address"
        }
      ],
      "name": "verifyOrganizer",
      "outputs": [],
      "stateMutability": "nonpayable",
      "type": "function"
    },
    {
      "inputs": [],
      "name": "withdraw",
      "outputs": [],
      "stateMutability": "nonpayable",
      "type": "function"
    }
  ],
  "bytecode": "0x60806040523480156200001157600080fd5b50604051806040016040528060088152602001671391951a58dad95d60c21b8152506040518060400160405280600581526020016409c8ca892b60db1b815250816000908162000062919062000194565b50600162000071828262000194565b5050506200008e620000886200009960201b60201c565b6200009d565b600160085562000260565b3390565b600780546001600160a01b038381166001600160a01b0319831681179093556040519116919082907f8be0079c531659141344cd1fd0a4f28419497f9722a3daafe3b4186f6b6457e090600090a35050565b634e487b7160e01b600052604160045260246000fd5b600181811c908216806200011a57607f821691505b6020821081036200013b57634e487b7160e01b600052602260045260246000fd5b50919050565b601f8211156200018f57600081815260208120601f850160051c810160208610156200016a5750805b601f850160051c820191505b818110156200018b5782815560010162000176565b5050505b505050565b81516001600160401b03811115620001b057620001b0620000ef565b620001c881620001c1845462000105565b8462000141565b602080601f831160018114620002005760008415620001e75750858301515b600019600386901b1c1916600185901b1785556200018b565b600085815260208120601f198616915b82811015620002315788860151825594840194600190910190840162000210565b5085821015620002505787850151600019600388901b60f8161c191681555b5050505050600190811b01905550565b61360880620002706000396000f3fe6080604052600436106101f95760003560e01c80637a4a34121161010d5780639f6271c3116100a0578063c87b56dd1161006f578063c87b56dd146106aa578063da6d790b146106ca578063ddc120af146106ea578063e985e9c51461070a578063f2fde38b1461075357600080fd5b80639f6271c31461061a578063a22cb4651461063a578063b88d4fde1461065a578063ba9fdc691461067a57600080fd5b80638da5cb5b116100dc5780638da5cb5b146105b25780638e3ced39146105d0578063957a632e146105e557806395d89b411461060557600080fd5b80637a4a3412146104cf5780637dc379fa146104e6578063830a1048146105585780638c8b5fd61461058557600080fd5b80633ccfd60b1161019057806354733f431161015f57806354733f431461042d5780636352211e1461044d57806367aa23e21461046d57806370a082311461049a578063715018a6146104ba57600080fd5b80633ccfd60b1461034757806342842e0e1461035c578063463b08db1461037c57806350b447121461039157600080fd5b80630b791430116101cc5780630b791430146102af57806319e2a211146102e657806323b872dd14610307578063266064481461032757600080fd5b806301ffc9a7146101fe57806306fdde0314610233578063081812fc14610255578063095ea7b31461028d575b600080fd5b34801561020a57600080fd5b5061021e610219366004612cba565b610773565b60405190151581526020015b60405180910390f35b34801561023f57600080fd5b50610248610784565b60405161022a9190612d27565b34801561026157600080fd5b50610275610270366004612d3a565b610816565b6040516001600160a01b03909116815260200161022a565b34801561029957600080fd5b506102ad6102a8366004612d6f565b61083d565b005b3480156102bb57600080fd5b506102cf6102ca366004612d3a565b610957565b60405161022a9b9a99989796959493929190612d99565b6102f96102f4366004612ede565b610be1565b60405190815260200161022a565b34801561031357600080fd5b506102ad610322366004612f25565b610ebc565b34801561033357600080fd5b506102ad610342366004612d3a565b610eed565b34801561035357600080fd5b506102ad6110ed565b34801561036857600080fd5b506102ad610377366004612f25565b611144565b34801561038857600080fd5b506102f9600581565b34801561039d57600080fd5b506103f06103ac366004612d3a565b600c6020526000908152604090208054600182015460028301546003840154600490940154929391926001600160a01b03821692600160a01b90920460ff16919086565b6040805196875260208701959095526001600160a01b039093169385019390935215156060840152608083019190915260a082015260c00161022a565b34801561043957600080fd5b506102ad610448366004612f61565b61115f565b34801561045957600080fd5b50610275610468366004612d3a565b61118b565b34801561047957600080fd5b5061048d610488366004612f61565b6111eb565b60405161022a9190612f7c565b3480156104a657600080fd5b506102f96104b5366004612f61565b611354565b3480156104c657600080fd5b506102ad6113da565b3480156104db57600080fd5b506102f96201518081565b3480156104f257600080fd5b50610506610501366004612d3a565b6113ee565b60405161022a919081518152602080830151908201526040808301516001600160a01b0316908201526060808301511515908201526080808301519082015260a0918201519181019190915260c00190565b34801561056457600080fd5b506102f9610573366004612d3a565b600d6020526000908152604090205481565b34801561059157600080fd5b506105a56105a0366004612d3a565b61149d565b60405161022a9190612fc0565b3480156105be57600080fd5b506007546001600160a01b0316610275565b3480156105dc57600080fd5b506102f9606e81565b3480156105f157600080fd5b506102ad610600366004612d3a565b6117ce565b34801561061157600080fd5b5061024861187c565b34801561062657600080fd5b5061048d610635366004612f61565b61188b565b34801561064657600080fd5b506102ad6106553660046130a9565b6119f1565b34801561066657600080fd5b506102ad6106753660046130e5565b6119fc565b34801561068657600080fd5b5061021e610695366004612f61565b600e6020526000908152604090205460ff1681565b3480156106b657600080fd5b506102486106c5366004612d3a565b611a34565b3480156106d657600080fd5b506102ad6106e5366004613161565b611a3f565b3480156106f657600080fd5b506102f9610705366004613186565b611dd2565b34801561071657600080fd5b5061021e610725366004613250565b6001600160a01b03918216600090815260056020908152604080832093909416825291909152205460ff1690565b34801561075f57600080fd5b506102ad61076e366004612f61565b612075565b600061077e826120ee565b92915050565b60606000805461079390613283565b80601f01602080910402602001604051908101604052809291908181526020018280546107bf90613283565b801561080c5780601f106107e15761010080835404028352916020019161080c565b820191906000526020600020905b8154815290600101906020018083116107ef57829003601f168201915b5050505050905090565b600061082182612113565b506000908152600460205260409020546001600160a01b031690565b60006108488261118b565b9050806001600160a01b0316836001600160a01b0316036108ba5760405162461bcd60e51b815260206004820152602160248201527f4552433732313a20617070726f76616c20746f2063757272656e74206f776e656044820152603960f91b60648201526084015b60405180910390fd5b336001600160a01b03821614806108d657506108d68133610725565b6109485760405162461bcd60e51b815260206004820152603d60248201527f4552433732313a20617070726f76652063616c6c6572206973206e6f7420746f60448201527f6b656e206f776e6572206f7220617070726f76656420666f7220616c6c00000060648201526084016108b1565b6109528383612172565b505050565b600b602052600090815260409020805460018201805491929161097990613283565b80601f01602080910402602001604051908101604052809291908181526020018280546109a590613283565b80156109f25780601f106109c7576101008083540402835291602001916109f2565b820191906000526020600020905b8154815290600101906020018083116109d557829003601f168201915b505050505090806002018054610a0790613283565b80601f0160208091040260200160405190810160405280929190818152602001828054610a3390613283565b8015610a805780601f10610a5557610100808354040283529160200191610a80565b820191906000526020600020905b815481529060010190602001808311610a6357829003601f168201915b505050505090806003018054610a9590613283565b80601f0160208091040260200160405190810160405280929190818152602001828054610ac190613283565b8015610b0e5780601f10610ae357610100808354040283529160200191610b0e565b820191906000526020600020905b815481529060010190602001808311610af157829003601f168201915b505050506004830154600584015460068501546007860154600887015460098801805497989597949650929491936001600160a01b03821693600160a01b90920460ff16929190610b5e90613283565b80601f0160208091040260200160405190810160405280929190818152602001828054610b8a90613283565b8015610bd75780601f10610bac57610100808354040283529160200191610bd7565b820191906000526020600020905b815481529060010190602001808311610bba57829003601f168201915b505050505090508b565b6000610beb6121e0565b6000838152600b602052604090206008810154600160a01b900460ff16610c4a5760405162461bcd60e51b81526020600482015260136024820152724576656e74206973206e6f742061637469766560681b60448201526064016108b1565b8060060154816007015410610c955760405162461bcd60e51b8152602060048201526011602482015270115d995b9d081a5cc81cdbdb19081bdd5d607a1b60448201526064016108b1565b8060050154341015610ce05760405162461bcd60e51b8152602060048201526014602482015273125b9cdd59999a58da595b9d081c185e5b595b9d60621b60448201526064016108b1565b80600401544210610d335760405162461bcd60e51b815260206004820152601960248201527f4576656e742068617320616c726561647920737461727465640000000000000060448201526064016108b1565b610d41600980546001019055565b6000610d4c60095490565b9050610d583382612239565b610d628185612253565b6040805160c081018252828152602080820188815233838501908152600060608501818152426080870190815260058a015460a08801908152898452600c9096529682209551865592516001860155905160028501805493511515600160a01b026001600160a81b03199094166001600160a01b03929092169190911792909217909155925160038301555160049091015560078301805491610e04836132d3565b90915550506000818152600d602052604081204290556064610e273460056132ec565b610e319190613303565b90506000610e3f8234613325565b60088501546040519192506001600160a01b03169082156108fc029083906000818181858888f19350505050158015610e7c573d6000803e3d6000fd5b506040513390889085907f085ec0eff4bf526b0dd054adffcd8bd8da42126a1133ce302042973f32029fb090600090a450909250505061077e6001600855565b610ec6338261231e565b610ee25760405162461bcd60e51b81526004016108b190613338565b61095283838361239d565b6000610ef88261118b565b6001600160a01b031603610f465760405162461bcd60e51b8152602060048201526015602482015274151a58dad95d08191bd95cc81b9bdd08195e1a5cdd605a1b60448201526064016108b1565b6000818152600c6020908152604080832060018101548452600b90925290912060088101546001600160a01b0316331480610f8b57506007546001600160a01b031633145b610ffd5760405162461bcd60e51b815260206004820152603960248201527f4f6e6c79206f7267616e697a6572206f7220636f6e7472616374206f776e657260448201527f2063616e206d61726b207469636b65747320617320757365640000000000000060648201526084016108b1565b6002820154600160a01b900460ff161561104f5760405162461bcd60e51b8152602060048201526013602482015272151a58dad95d08185b1c9958591e481d5cd959606a1b60448201526064016108b1565b80600401544210156110a35760405162461bcd60e51b815260206004820152601960248201527f4576656e7420686173206e6f742073746172746564207965740000000000000060448201526064016108b1565b60028201805460ff60a01b1916600160a01b179055600182015460405184907fad0a02848182e7d3a9bb0ae2cc919bdef92f9da6b0a45ced3656cf5443212ede90600090a3505050565b6110f5612501565b476111086007546001600160a01b031690565b6001600160a01b03166108fc829081150290604051600060405180830381858888f19350505050158015611140573d6000803e3d6000fd5b5050565b610952838383604051806020016040528060008152506119fc565b611167612501565b6001600160a01b03166000908152600e60205260409020805460ff19166001179055565b6000818152600260205260408120546001600160a01b03168061077e5760405162461bcd60e51b8152602060048201526018602482015277115490cdcc8c4e881a5b9d985b1a59081d1bdad95b88125160421b60448201526064016108b1565b606060006111f883611354565b905060008167ffffffffffffffff81111561121557611215612e32565b60405190808252806020026020018201604052801561123e578160200160208202803683370190505b509050600060015b60095481116112ae57856001600160a01b03166112628261118b565b6001600160a01b03160361129c578083838151811061128357611283613385565b602090810291909101015281611298816132d3565b9250505b806112a6816132d3565b915050611246565b5060008167ffffffffffffffff8111156112ca576112ca612e32565b6040519080825280602002602001820160405280156112f3578160200160208202803683370190505b50905060005b8281101561134a5783818151811061131357611313613385565b602002602001015182828151811061132d5761132d613385565b602090810291909101015280611342816132d3565b9150506112f9565b5095945050505050565b60006001600160a01b0382166113be5760405162461bcd60e51b815260206004820152602960248201527f4552433732313a2061646472657373207a65726f206973206e6f7420612076616044820152683634b21037bbb732b960b91b60648201526084016108b1565b506001600160a01b031660009081526003602052604090205490565b6113e2612501565b6113ec600061255b565b565b6114326040518060c00160405280600081526020016000815260200160006001600160a01b0316815260200160001515815260200160008152602001600081525090565b506000908152600c6020908152604091829020825160c0810184528154815260018201549281019290925260028101546001600160a01b03811693830193909352600160a01b90920460ff16151560608201526003820154608082015260049091015460a082015290565b611505604051806101600160405280600081526020016060815260200160608152602001606081526020016000815260200160008152602001600081526020016000815260200160006001600160a01b03168152602001600015158152602001606081525090565b600b6000838152602001908152602001600020604051806101600160405290816000820154815260200160018201805461153e90613283565b80601f016020809104026020016040519081016040528092919081815260200182805461156a90613283565b80156115b75780601f1061158c576101008083540402835291602001916115b7565b820191906000526020600020905b81548152906001019060200180831161159a57829003601f168201915b505050505081526020016002820180546115d090613283565b80601f01602080910402602001604051908101604052809291908181526020018280546115fc90613283565b80156116495780601f1061161e57610100808354040283529160200191611649565b820191906000526020600020905b81548152906001019060200180831161162c57829003601f168201915b5050505050815260200160038201805461166290613283565b80601f016020809104026020016040519081016040528092919081815260200182805461168e90613283565b80156116db5780601f106116b0576101008083540402835291602001916116db565b820191906000526020600020905b8154815290600101906020018083116116be57829003601f168201915b50505091835250506004820154602082015260058201546040820152600682015460608201526007820154608082015260088201546001600160a01b03811660a0830152600160a01b900460ff16151560c082015260098201805460e09092019161174590613283565b80601f016020809104026020016040519081016040528092919081815260200182805461177190613283565b80156117be5780601f10611793576101008083540402835291602001916117be565b820191906000526020600020905b8154815290600101906020018083116117a157829003601f168201915b5050505050815250509050919050565b6000818152600b6020526040902060088101546001600160a01b031633148061180157506007546001600160a01b031633145b61186b5760405162461bcd60e51b815260206004820152603560248201527f4f6e6c79206f7267616e697a6572206f7220636f6e7472616374206f776e65726044820152740818d85b8819195858dd1a5d985d1948195d995b9d605a1b60648201526084016108b1565b600801805460ff60a01b1916905550565b60606001805461079390613283565b60606000611898600a5490565b67ffffffffffffffff8111156118b0576118b0612e32565b6040519080825280602002602001820160405280156118d9578160200160208202803683370190505b509050600060015b600a54811161194c576000818152600b60205260409020600801546001600160a01b0380871691160361193a578083838151811061192157611921613385565b602090810291909101015281611936816132d3565b9250505b80611944816132d3565b9150506118e1565b5060008167ffffffffffffffff81111561196857611968612e32565b604051908082528060200260200182016040528015611991578160200160208202803683370190505b50905060005b828110156119e8578381815181106119b1576119b1613385565b60200260200101518282815181106119cb576119cb613385565b6020908102919091010152806119e0816132d3565b915050611997565b50949350505050565b6111403383836125ad565b611a06338361231e565b611a225760405162461bcd60e51b81526004016108b190613338565b611a2e8484848461267b565b50505050565b606061077e826126ae565b611a476121e0565b6000611a528461118b565b6001600160a01b031603611aa05760405162461bcd60e51b8152602060048201526015602482015274151a58dad95d08191bd95cc81b9bdd08195e1a5cdd605a1b60448201526064016108b1565b33611aaa8461118b565b6001600160a01b031614611b005760405162461bcd60e51b815260206004820152601960248201527f596f7520646f6e2774206f776e2074686973207469636b65740000000000000060448201526064016108b1565b6001600160a01b038216611b565760405162461bcd60e51b815260206004820152601960248201527f496e76616c696420726563697069656e7420616464726573730000000000000060448201526064016108b1565b6000838152600c602052604090206002810154600160a01b900460ff1615611bc05760405162461bcd60e51b815260206004820152601b60248201527f43616e6e6f74207472616e736665722075736564207469636b6574000000000060448201526064016108b1565b6000848152600d6020526040902054611bdd90620151809061339b565b421015611c2c5760405162461bcd60e51b815260206004820181905260248201527f5472616e7366657220636f6f6c646f776e20706572696f64206e6f74206d657460448201526064016108b1565b60006064606e8360040154611c4191906132ec565b611c4b9190613303565b905080831115611ca85760405162461bcd60e51b815260206004820152602260248201527f50726963652065786365656473206d6178696d756d20726573616c65206c696d6044820152611a5d60f21b60648201526084016108b1565b60018201546000908152600b60205260408120906064611cc96005876132ec565b611cd39190613303565b90506000611ce18287613325565b604051909150339082156108fc029083906000818181858888f19350505050158015611d11573d6000803e3d6000fd5b5060088301546040516001600160a01b039091169083156108fc029084906000818181858888f19350505050158015611d4e573d6000803e3d6000fd5b50611d5a33888a61239d565b6002850180546001600160a01b0319166001600160a01b0389169081179091556000898152600d6020908152604091829020429055905188815233918b917fdfc4c991a34be4b2f90df7c348d98b17393713ef48853d9071cf19d4687a6a36910160405180910390a450505050506109526001600855565b6000428511611e235760405162461bcd60e51b815260206004820181905260248201527f4576656e742064617465206d75737420626520696e207468652066757475726560448201526064016108b1565b60008411611e7f5760405162461bcd60e51b815260206004820152602360248201527f5469636b6574207072696365206d75737420626520677265617465722074686160448201526206e20360ec1b60648201526084016108b1565b60008311611eda5760405162461bcd60e51b815260206004820152602260248201527f4d6178207469636b657473206d7573742062652067726561746572207468616e604482015261020360f41b60648201526084016108b1565b611ee8600a80546001019055565b6000611ef3600a5490565b90506040518061016001604052808281526020018a815260200189815260200188815260200187815260200186815260200185815260200160008152602001336001600160a01b0316815260200160011515815260200184815250600b6000838152602001908152602001600020600082015181600001556020820151816001019081611f8091906133fc565b5060408201516002820190611f9590826133fc565b5060608201516003820190611faa90826133fc565b506080820151600482015560a0820151600582015560c0820151600682015560e082015160078201556101008201516008820180546101208501511515600160a01b026001600160a81b03199091166001600160a01b0390931692909217919091179055610140820151600982019061202390826133fc565b50905050336001600160a01b0316817ffc695dea2478fb938a11068aeedddd7046a5fe655f136e30a325d353fe187a458b6040516120619190612d27565b60405180910390a398975050505050505050565b61207d612501565b6001600160a01b0381166120e25760405162461bcd60e51b815260206004820152602660248201527f4f776e61626c653a206e6577206f776e657220697320746865207a65726f206160448201526564647265737360d01b60648201526084016108b1565b6120eb8161255b565b50565b60006001600160e01b03198216632483248360e11b148061077e575061077e826127b6565b6000818152600260205260409020546001600160a01b03166120eb5760405162461bcd60e51b8152602060048201526018602482015277115490cdcc8c4e881a5b9d985b1a59081d1bdad95b88125160421b60448201526064016108b1565b600081815260046020526040902080546001600160a01b0319166001600160a01b03841690811790915581906121a78261118b565b6001600160a01b03167f8c5be1e5ebec7d5bd14f71427d1e84f3dd0314c0f7b2291e5b200ac8c7c3b92560405160405180910390a45050565b6002600854036122325760405162461bcd60e51b815260206004820152601f60248201527f5265656e7472616e637947756172643a207265656e7472616e742063616c6c0060448201526064016108b1565b6002600855565b611140828260405180602001604052806000815250612806565b6000828152600260205260409020546001600160a01b03166122ce5760405162461bcd60e51b815260206004820152602e60248201527f45524337323155524953746f726167653a2055524920736574206f66206e6f6e60448201526d32bc34b9ba32b73a103a37b5b2b760911b60648201526084016108b1565b60008281526006602052604090206122e682826133fc565b506040518281527ff8e1a15aba9398e019f0b49df1a4fde98ee17ae345cb5f6b5e2c27f5033e8ce79060200160405180910390a15050565b60008061232a8361118b565b9050806001600160a01b0316846001600160a01b0316148061237157506001600160a01b0380821660009081526005602090815260408083209388168352929052205460ff165b806123955750836001600160a01b031661238a84610816565b6001600160a01b0316145b949350505050565b826001600160a01b03166123b08261118b565b6001600160a01b0316146123d65760405162461bcd60e51b81526004016108b1906134bc565b6001600160a01b0382166124385760405162461bcd60e51b8152602060048201526024808201527f4552433732313a207472616e7366657220746f20746865207a65726f206164646044820152637265737360e01b60648201526084016108b1565b826001600160a01b031661244b8261118b565b6001600160a01b0316146124715760405162461bcd60e51b81526004016108b1906134bc565b600081815260046020908152604080832080546001600160a01b03199081169091556001600160a01b0387811680865260038552838620805460001901905590871680865283862080546001019055868652600290945282852080549092168417909155905184937fddf252ad1be2c89b69c2b068fc378daa952ba7f163c4a11628f55a4df523b3ef91a4505050565b6007546001600160a01b031633146113ec5760405162461bcd60e51b815260206004820181905260248201527f4f776e61626c653a2063616c6c6572206973206e6f7420746865206f776e657260448201526064016108b1565b600780546001600160a01b038381166001600160a01b0319831681179093556040519116919082907f8be0079c531659141344cd1fd0a4f28419497f9722a3daafe3b4186f6b6457e090600090a35050565b816001600160a01b0316836001600160a01b03160361260e5760405162461bcd60e51b815260206004820152601960248201527f4552433732313a20617070726f766520746f2063616c6c65720000000000000060448201526064016108b1565b6001600160a01b03838116600081815260056020908152604080832094871680845294825291829020805460ff191686151590811790915591519182527f17307eab39ab6107e8899845ad3d59bd9653f200f220920489ca2b5937696c31910160405180910390a3505050565b61268684848461239d565b61269284848484612839565b611a2e5760405162461bcd60e51b81526004016108b190613501565b60606126b982612113565b600082815260066020526040812080546126d290613283565b80601f01602080910402602001604051908101604052809291908181526020018280546126fe90613283565b801561274b5780601f106127205761010080835404028352916020019161274b565b820191906000526020600020905b81548152906001019060200180831161272e57829003601f168201915b50505050509050600061276960408051602081019091526000815290565b9050805160000361277b575092915050565b8151156127ad578082604051602001612795929190613553565b60405160208183030381529060405292505050919050565b6123958461293a565b60006001600160e01b031982166380ac58cd60e01b14806127e757506001600160e01b03198216635b5e139f60e01b145b8061077e57506301ffc9a760e01b6001600160e01b031983161461077e565b61281083836129ae565b61281d6000848484612839565b6109525760405162461bcd60e51b81526004016108b190613501565b60006001600160a01b0384163b1561292f57604051630a85bd0160e11b81526001600160a01b0385169063150b7a029061287d903390899088908890600401613582565b6020604051808303816000875af19250505080156128b8575060408051601f3d908101601f191682019092526128b5918101906135b5565b60015b612915573d8080156128e6576040519150601f19603f3d011682016040523d82523d6000602084013e6128eb565b606091505b50805160000361290d5760405162461bcd60e51b81526004016108b190613501565b805181602001fd5b6001600160e01b031916630a85bd0160e11b149050612395565b506001949350505050565b606061294582612113565b600061295c60408051602081019091526000815290565b9050600081511161297c57604051806020016040528060008152506129a7565b8061298684612b39565b604051602001612997929190613553565b6040516020818303038152906040525b9392505050565b6001600160a01b038216612a045760405162461bcd60e51b815260206004820181905260248201527f4552433732313a206d696e7420746f20746865207a65726f206164647265737360448201526064016108b1565b6000818152600260205260409020546001600160a01b031615612a695760405162461bcd60e51b815260206004820152601c60248201527f4552433732313a20746f6b656e20616c7265616479206d696e7465640000000060448201526064016108b1565b6000818152600260205260409020546001600160a01b031615612ace5760405162461bcd60e51b815260206004820152601c60248201527f4552433732313a20746f6b656e20616c7265616479206d696e7465640000000060448201526064016108b1565b6001600160a01b038216600081815260036020908152604080832080546001019055848352600290915280822080546001600160a01b0319168417905551839291907fddf252ad1be2c89b69c2b068fc378daa952ba7f163c4a11628f55a4df523b3ef908290a45050565b60606000612b4683612bcc565b600101905060008167ffffffffffffffff811115612b6657612b66612e32565b6040519080825280601f01601f191660200182016040528015612b90576020820181803683370190505b5090508181016020015b600019016f181899199a1a9b1b9c1cb0b131b232b360811b600a86061a8153600a8504945084612b9a57509392505050565b60008072184f03e93ff9f4daa797ed6e38ed64bf6a1f0160401b8310612c0b5772184f03e93ff9f4daa797ed6e38ed64bf6a1f0160401b830492506040015b6d04ee2d6d415b85acef81000000008310612c37576d04ee2d6d415b85acef8100000000830492506020015b662386f26fc100008310612c5557662386f26fc10000830492506010015b6305f5e1008310612c6d576305f5e100830492506008015b6127108310612c8157612710830492506004015b60648310612c93576064830492506002015b600a831061077e5760010192915050565b6001600160e01b0319811681146120eb57600080fd5b600060208284031215612ccc57600080fd5b81356129a781612ca4565b60005b83811015612cf2578181015183820152602001612cda565b50506000910152565b60008151808452612d13816020860160208601612cd7565b601f01601f19169290920160200192915050565b6020815260006129a76020830184612cfb565b600060208284031215612d4c57600080fd5b5035919050565b80356001600160a01b0381168114612d6a57600080fd5b919050565b60008060408385031215612d8257600080fd5b612d8b83612d53565b946020939093013593505050565b60006101608d8352806020840152612db38184018e612cfb565b90508281036040840152612dc7818d612cfb565b90508281036060840152612ddb818c612cfb565b90508960808401528860a08401528760c08401528660e084015260018060a01b038616610100840152841515610120840152828103610140840152612e208185612cfb565b9e9d5050505050505050505050505050565b634e487b7160e01b600052604160045260246000fd5b600067ffffffffffffffff80841115612e6357612e63612e32565b604051601f8501601f19908116603f01168101908282118183101715612e8b57612e8b612e32565b81604052809350858152868686011115612ea457600080fd5b858560208301376000602087830101525050509392505050565b600082601f830112612ecf57600080fd5b6129a783833560208501612e48565b60008060408385031215612ef157600080fd5b82359150602083013567ffffffffffffffff811115612f0f57600080fd5b612f1b85828601612ebe565b9150509250929050565b600080600060608486031215612f3a57600080fd5b612f4384612d53565b9250612f5160208501612d53565b9150604084013590509250925092565b600060208284031215612f7357600080fd5b6129a782612d53565b6020808252825182820181905260009190848201906040850190845b81811015612fb457835183529284019291840191600101612f98565b50909695505050505050565b602081528151602082015260006020830151610160806040850152612fe9610180850183612cfb565b91506040850151601f19808685030160608701526130078483612cfb565b935060608701519150808685030160808701526130248483612cfb565b9350608087015160a087015260a087015160c087015260c087015160e087015260e08701519150610100828188015280880151925050610120613071818801846001600160a01b03169052565b87015191506101406130868782018415159052565b87015186850390910183870152905061309f8382612cfb565b9695505050505050565b600080604083850312156130bc57600080fd5b6130c583612d53565b9150602083013580151581146130da57600080fd5b809150509250929050565b600080600080608085870312156130fb57600080fd5b61310485612d53565b935061311260208601612d53565b925060408501359150606085013567ffffffffffffffff81111561313557600080fd5b8501601f8101871361314657600080fd5b61315587823560208401612e48565b91505092959194509250565b60008060006060848603121561317657600080fd5b83359250612f5160208501612d53565b600080600080600080600060e0888a0312156131a157600080fd5b873567ffffffffffffffff808211156131b957600080fd5b6131c58b838c01612ebe565b985060208a01359150808211156131db57600080fd5b6131e78b838c01612ebe565b975060408a01359150808211156131fd57600080fd5b6132098b838c01612ebe565b965060608a0135955060808a0135945060a08a0135935060c08a013591508082111561323457600080fd5b506132418a828b01612ebe565b91505092959891949750929550565b6000806040838503121561326357600080fd5b61326c83612d53565b915061327a60208401612d53565b90509250929050565b600181811c9082168061329757607f821691505b6020821081036132b757634e487b7160e01b600052602260045260246000fd5b50919050565b634e487b7160e01b600052601160045260246000fd5b6000600182016132e5576132e56132bd565b5060010190565b808202811582820484141761077e5761077e6132bd565b60008261332057634e487b7160e01b600052601260045260246000fd5b500490565b8181038181111561077e5761077e6132bd565b6020808252602d908201527f4552433732313a2063616c6c6572206973206e6f7420746f6b656e206f776e6560408201526c1c881bdc88185c1c1c9bdd9959609a1b606082015260800190565b634e487b7160e01b600052603260045260246000fd5b8082018082111561077e5761077e6132bd565b601f82111561095257600081815260208120601f850160051c810160208610156133d55750805b601f850160051c820191505b818110156133f4578281556001016133e1565b505050505050565b815167ffffffffffffffff81111561341657613416612e32565b61342a816134248454613283565b846133ae565b602080601f83116001811461345f57600084156134475750858301515b600019600386901b1c1916600185901b1785556133f4565b600085815260208120601f198616915b8281101561348e5788860151825594840194600190910190840161346f565b50858210156134ac5787850151600019600388901b60f8161c191681555b5050505050600190811b01905550565b60208082526025908201527f4552433732313a207472616e736665722066726f6d20696e636f72726563742060408201526437bbb732b960d91b606082015260800190565b60208082526032908201527f4552433732313a207472616e7366657220746f206e6f6e20455243373231526560408201527131b2b4bb32b91034b6b83632b6b2b73a32b960711b606082015260800190565b60008351613565818460208801612cd7565b835190830190613579818360208801612cd7565b01949350505050565b6001600160a01b038581168252841660208201526040810183905260806060820181905260009061309f90830184612cfb565b6000602082840312156135c757600080fd5b81516129a781612ca456fea2646970667358221220aa77b358b1e710ceee7202b670bf44d711a6a562cf4d68f3fc526fbd36c2385064736f6c63430008130033",
  "linkReferences": {},
  "deployedLinkReferences": {},
  "immutableReferences": {},
  "inputSourceName": "project/contracts/NFTix.sol",
  "buildInfoId": "solc-0_8_19-e8d79e30bb918a2f138eede3a44dda95194ef25a"
}